:020000040000FA
:02000000D62800
:08000800A000030E8301A1001A
:100010000A08B6008A010C1C11280C1010100512D9
:1000200085120B1DCF280B11A81F1A283C08003879
:10003000031DBC03A71B752835183028B5183028B8
:10004000B21C7328A20B73281930A20027192C2880
:100050008716071327157328871207172711732888
:100060001010FF308F002C083E3EFF3A8E00031820
:100070008F0310140516271B41283708351C380834
:10008000AB002B08B00B67283108B0002B082C02FE
:1000900003196928871207132810A8132F080318BB
:1000A0005C282C0703186928AC002B020319692867
:1000B000031C69282C0872282C0203196928031CC8
:1000C0006928AC002B0203196928031869282C0839
:1000D00072282B08AC0035187028071728147228CE
:1000E000871628142714A717CD28B5198928351A7B
:1000F0008928B21CCC28A30BCC281930A300A71A3E
:10010000852887150712A716CC2887110716A7126E
:10011000CC281010FF308F002E083E3EFF3A8E0094
:1001200003188F0310148516271B9A283908B51D4C
:100130003A08AD002D08B00BC0283108B0002D08DA
:100140002E020319C22887110712A810A8132F081E
:100150000318B5282E070318C228AE002D02031974
:10016000C228031CC2282E08CB282E020319C2283D
:10017000031CC228AE002D020319C2280318C2288E
:100180002E08CB282D08AE00B519C9280716A814CB
:10019000CB288715A814A714A7136430810036084C
:1001A0008A00210E8300A00E200E0900831603137F
:1001B0001530810010309F008312031717309E0006
:1001C0009F01F030960183160313860001308700EB
:1001D0000F30850096010830950001308C008D01AC
:1001E000831203138C01850186018701A701A801F1
:1001F000303090009F01643081001930A20004303B
:10020000F52100380319013EAF000530F521003813
:100210000319013EB000B1000730F521B2001730DC
:10022000F5217F39A600B5000C30F52100380319FF
:10023000013EB7000D30F52100380319013EB8002A
:100240001430F52100380319013EB9001530F521AD
:1002500000380319013EBA001630F521BB003218F0
:10026000372983120317F030950083120313851981
:100270003F29271701309F002222871407110030E1
:10028000AB009B21AC000030AD00BC21AE00E030E3
:100290008B0006083218FF3AAA00AA1A532926141E
:1002A000A610A81358292A1A5829A6142610A813EC
:1002B000AA1B5E29A6152612A81363292A1B6329E7
:1002C0002616A611A8138B138B1B63292608B500CD
:1002D000E7218B179F12271B8429321F7E29281C98
:1002E0007E29A81C7E29A81B7829A8173B08BC00DA
:1002F0003C080038031D7E2987134929271C4929FA
:10030000A71C49298717492987179B21BC218519D3
:100310004929071522222B0802220C30351C0D30EA
:10032000082224222D0802221430B51D153008227F
:100330002422071149293518A729B51C0800271BB5
:10034000A3293808B7291F119F151F12AE29271B93
:10035000AB293708B7291F119F111F169F149F182B
:10036000AF290530A5000000A50BB3291E080038F1
:100370000319013EAB000800B519C829351E080055
:10038000271BC4293A08D8291F119F111F12CF29F2
:10039000271BCC293908D8291F159F111F129F141C
:1003A0009F18D0290530A5000000A50BD4291E08F0
:1003B00000380319013EAD0008007D30A4000000A4
:1003C0000000000000000000A40BDF290800350831
:1003D000290203190800271F07153508A900022262
:1003E00017300822271F07110800831203178D00FA
:1003F000831603178C130C14831203170C08831233
:1004000003130800831203178C00831203130800E0
:10041000831203178D00831603178C130C158B138F
:100420008B1B0F2A55308D00AA308D008C1483123F
:1004300003130D1E192A831603170C1183120313BD
:100440008B170800851D222A3230B4006E30B300AD
:10045000000000000000000000000000B30B282A8C
:06046000B40B262A003453
:02400E00D43F9D
:104200004D005A0013000500010003004700400064
:10421000010003000A000A00000000000100030082
:10422000010003000A000A00000000006400000012
:00000001FF
