:020000040000FA
:02000000D62800
:08000800A000030E8301A1001A
:100010000A08B6008A010C1C11280C1010100512D9
:1000200085120B1DCF280B11A81F1A283C08003879
:10003000031DBC03A71B752835183028B5183028B8
:10004000B21C7328A20B73281930A20027192C2880
:100050008716071327157328871207172711732888
:100060001010FF308F002C083E3EFF3A8E00031820
:100070008F0310140516271B41283708351C380834
:10008000AB002B08B00B67283108B0002B082C02FE
:1000900003196928871207132810A8132F080318BB
:1000A0005C282C0703186928AC002B020319692867
:1000B000031C69282C0872282C0203196928031CC8
:1000C0006928AC002B0203196928031869282C0839
:1000D00072282B08AC0035187028071728147228CE
:1000E000871628142714A717CD28B5198928351A7B
:1000F0008928B21CCC28A30BCC281930A300A71A3E
:10010000852887150712A716CC2887110716A7126E
:10011000CC281010FF308F002E083E3EFF3A8E0094
:1001200003188F0310148516271B9A283908B51D4C
:100130003A08AD002D08B00BC0283108B0002D08DA
:100140002E020319C22887110712A810A8132F081E
:100150000318B5282E070318C228AE002D02031974
:10016000C228031CC2282E08CB282E020319C2283D
:10017000031CC228AE002D020319C2280318C2288E
:100180002E08CB282D08AE00B519C9280716A814CB
:10019000CB288715A814A714A7136430810036084C
:1001A0008A00210E8300A00E200E0900831603137F
:1001B0001530810010309F008312031717309E0006
:1001C0009F01F030960183160313860005308700E7
:1001D0000F30850096010830950001308C008D01AC
:1001E000831203138C01850186018701A701A801F1
:1001F000303090009F01643081001930A20004303B
:10020000F22100380319013EAF000530F221003819
:100210000319013EB000B1000730F221B2001730DF
:10022000F2217F39A600B5000C30F2210038031905
:10023000013EB7000D30F22100380319013EB8002D
:100240001430F22100380319013EB9001530F221B3
:1002500000380319013EBA001630F221BB003218F3
:10026000372983120317F030950083120313851981
:100270003E29271701309F001F2287140030AB0052
:100280009A21AC000030AD00BB21AE00E0308B0005
:1002900006083218FF3AAA00AA1A52292614A610F4
:1002A000A81357292A1A5729A6142610A813AA1BDF
:1002B0005D29A6152612A81362292A1B6229261673
:1002C000A611A8138B138B1B62292608B500E62103
:1002D0008B179F12271B8529321F7F29071D7F2916
:1002E000281C7F29A81C7F29A81B7929A8173B084F
:1002F000BC003C080038031D7F2987134829271CB0
:100300004829A71C48298717482987179A21BB2104
:10031000851948291F222B08FF210C30351C0D3070
:10032000052221222D08FF211430B51D153005228C
:10033000212248293518A629B51C0800271BA22907
:100340003808B6291F119F151F12AD29271BAA298E
:100350003708B6291F119F111F169F149F18AE2929
:100360000530A5000000A50BB2291E0800380319AE
:10037000013EAB000800B519C729351E0800271B30
:10038000C3293A08D7291F119F111F12CE29271BF5
:10039000CB293908D7291F159F111F129F149F18A9
:1003A000CF290530A5000000A50BD3291E08003871
:1003B0000319013EAD0008007D30A40000000000DC
:1003C000000000000000A40BDE2908003508290207
:1003D00003190800271F3508A900FF21173005223F
:1003E000271F0800831203178D00831603178C1331
:1003F0000C14831203170C088312031308008312D2
:1004000003178C00831203130800831203178D0057
:10041000831603178C130C158B138B1B0C2A55306A
:100420008D00AA308D008C14831203130D1E162A22
:10043000831603170C11831203138B170800851DF5
:100440001F2A3230B4006E30B300000000000000FC
:10045000000000000000B30B252AB40B232A00344F
:02400E00D43F9D
:104200004D005A0013000600010003004700400063
:10421000010003000A000A00000000000100030082
:10422000010003000A000A00000000006400000012
:00000001FF
